:020000040000FA
:1000000068020020F1020000F9020000FB0200007B
:10001000FD020000FF0200000103000000000000DC
:1000200000000000000000000000000003030000CA
:1000300005030000000000000703000009030000A2
:100040000B0300000D0300000F030000110300006C
:10005000130300001503000017030000190300003C
:100060001B0300001D0300001F030000210300000C
:1000700023030000250300002703000029030000DC
:100080002B0300002D0300002F03000031030000AC
:10009000330300003503000037030000390300007C
:1000A0003B0300003D0300003F030000410300004C
:1000B000430300004503000047030000490300001C
:1000C0004B0300004D0300004F03000051030000EC
:1000D00053030000550300005703000059030000BC
:1000E0005B0300005D030000000000005F030000F0
:1000F0006103000063030000650300006703000064
:10010000690300006B0300006D0300006F03000033
:1001100000000000000000007103000073030000F5
:100120007503000077030000790300007B030000E3
:100130007D0300007F0300008103000083030000B3
:1001400000000000000000000000000000000000AF
:100150008503000087030000890300008B03000073
:10016000000000000000000000000000000000008F
:10017000000000000000000000000000000000007F
:10018000000000000000000000000000000000006F
:10019000000000000000000000000000000000005F
:1001A000000000000000000000000000000000004F
:1001B0008D0300008F0300009103000093030000F3
:1001C0009503000097030000990300009B030000C3
:1001D0009D0300009F030000A1030000A303000093
:1001E000A5030000A7030000A90300000000000011
:1001F00000000000AB030000AD030000AF030000EF
:10020000B1030000B3030000000000000000000084
:10021000B5030000B7030000B9030000BB030000F2
:10022000BD030000BF030000C1030000C3030000C2
:10023000C5030000C7030000C9030000CB03000092
:10024000CD030000CF030000D1030000D303000062
:10025000D5030000D7030000D9030000DB03000032
:10026000DD030000DF030000E103000000F002F8FE
:1002700000F02EF80AA090E8000C82448344AAF112
:100280000107DA4501D100F023F8AFF2090EBAE810
:100290000F0013F0010F18BFFB1A43F001031847BA
:1002A000A80E0000B80E0000002300240025002640
:1002B000103A28BF78C1FBD8520728BF30C148BFC9
:1002C0000B6070471FB500F031FF1FBD10B510BDAA
:1002D00000F09BF81146FFF7F5FF00F0C9FE00F0B3
:1002E000B9F803B4FFF7F2FF03BC00F0C1F8000057
:1002F0003F4880473F480047FEE7FEE7FEE7FEE74E
:10030000FEE7FEE7FEE7FEE7FEE7FEE7FEE7FEE7C5
:10031000FEE7FEE7FEE7FEE7FEE7FEE7FEE7FEE7B5
:10032000FEE7FEE7FEE7FEE7FEE7FEE7FEE7FEE7A5
:10033000FEE7FEE7FEE7FEE7FEE7FEE7FEE7FEE795
:10034000FEE7FEE7FEE7FEE7FEE7FEE7FEE7FEE785
:10035000FEE7FEE7FEE7FEE7FEE7FEE7FEE7FEE775
:10036000FEE7FEE7FEE7FEE7FEE7FEE7FEE7FEE765
:10037000FEE7FEE7FEE7FEE7FEE7FEE7FEE7FEE755
:10038000FEE7FEE7FEE7FEE7FEE7FEE7FEE7FEE745
:10039000FEE7FEE7FEE7FEE7FEE7FEE7FEE7FEE735
:1003A000FEE7FEE7FEE7FEE7FEE7FEE7FEE7FEE725
:1003B000FEE7FEE7FEE7FEE7FEE7FEE7FEE7FEE715
:1003C000FEE7FEE7FEE7FEE7FEE7FEE7FEE7FEE705
:1003D000FEE7FEE7FEE7FEE7FEE7FEE7FEE7FEE7F5
:1003E000FEE7000004480549034A054B704700003A
:1003F000650F00006D020000680000206802002008
:1004000068000020704770477047754600F02CF870
:10041000AE4605006946534620F00700854618B0F1
:1004200020B5FFF7DFFFBDE820404FF000064FF09A
:1004300000074FF000084FF0000BAC46ACE8C009D5
:10044000ACE8C009ACE8C009ACE8C00921F007017C
:100450008D46704710B50446AFF300802046BDE8D6
:100460001040FFF73EBF000000487047000000202A
:1004700001491820ABBEFEE72600020070470000CD
:1004800082B0ADF806008DF805108DF804208DF8C7
:100490000330BDF8060040F26001C2F2000108809E
:1004A0009DF8050088709DF80400C8709DF8030051
:1004B0000871FFE7FEE7000080B582B08DF8070005
:1004C0008DF806109DF807004CF6CD41CCF6CC41D6
:1004D000A0FB0120C0088DF805009DF80700A0FBD7
:1004E0000121C90801EB8101A0EB41008DF8040056
:1004F0009DF80700372807DBFFE77820002101225D
:100500000A23FFF7BDFFFFE79DF80700072820DC5F
:10051000FFE79DF8060001280DD1FFE79DF80710C1
:10052000012000FA01F244F2FC31C4F20001086833
:10053000104308600CE09DF80710012000FA01F25A
:1005400044F2FC31C4F20001086890430860FFE700
:10055000AEE09DF80500013801460091042800F244
:10056000A6800099DFE801F00323436383009DF830
:10057000060001280DD1FFE79DF80410012000FAC4
:1005800001F245F2FC31C4F2000108681043086032
:100590000CE09DF80410012000FA01F245F2FC3154
:1005A000C4F20001086890430860FFE77FE09DF80F
:1005B000060001280DD1FFE79DF80410012000FA84
:1005C00001F246F2FC31C4F20001086810430860F1
:1005D0000CE09DF80410012000FA01F246F2FC3113
:1005E000C4F20001086890430860FFE75FE09DF8EF
:1005F000060001280DD1FFE79DF80410012000FA44
:1006000001F247F2FC31C4F20001086810430860AF
:100610000CE09DF80410012000FA01F247F2FC31D1
:10062000C4F20001086890430860FFE73FE09DF8CE
:10063000060001280DD1FFE79DF80410012000FA03
:1006400001F244F2FC31C4F2020108681043086070
:100650000CE09DF80410012000FA01F244F2FC3194
:10066000C4F20201086890430860FFE71FE09DF8AC
:10067000060001280DD1FFE79DF80410012000FAC3
:1006800001F245F2FC31C4F202010868104308602F
:100690000CE09DF80410012000FA01F245F2FC3153
:1006A000C4F20201086890430860FFE7FFE7FFE734
:1006B00002B080BD80B582B0019072B6019880789A
:1006C0004CF6CD41CCF6CC41A0FB0120C0088DF802
:1006D000030001988078A0FB0121C90801EB81018A
:1006E000A0EB41008DF80200019838B9FFE77C20AB
:1006F000002210231146FFF7C3FEFFE70198807820
:1007000040281EDCFFE701988078122819D0FFE707
:1007100001988078132814D0FFE7019880781C286E
:100720000FD0FFE7019880781D280AD0FFE70198D5
:100730008078262805D0FFE701988078272807D100
:10074000FFE77C2000220A231146FFF799FEFFE70E
:100750009DF80300012840F0A680FFE74EF20861F3
:10076000C4F20F01086840F0010008609DF8021013
:10077000012000FA01F244F21C51C4F200010868A1
:100780001043086001980078002860D1FFE79DF8C9
:100790000210012000FA01F244F20041C4F200010B
:1007A0000868904308600198C079012818D1FFE7D4
:1007B0009DF80210012000FA01F344F21052C4F235
:1007C00000021168194311609DF8021000FA01F24D
:1007D00044F21451C4F2000108689043086035E007
:1007E0000198C079022818D1FFE79DF80210012076
:1007F00000FA01F344F21452C4F2000211681943E2
:1008000011609DF8021000FA01F244F21051C4F296
:10081000000108689043086017E09DF8021001206D
:1008200000FA01F344F21052C4F200021168994335
:1008300011609DF8021000FA01F244F21451C4F262
:100840000001086890430860FFE7FFE72AE09DF891
:100850000210012000FA01F244F20041C4F200014A
:100860000868104308600198007968B9FFE79DF8AF
:100870000210012000FA01F244F2FC31C4F200013E
:100880000868904308600CE09DF80210012000FA0F
:1008900001F244F20041C4F200010868104308600C
:1008A000FFE7FFE754E39DF80300022840F0A6802D
:1008B000FFE74EF20861C4F20F01086840F0020041
:1008C00008609DF80210012000FA01F245F21C5167
:1008D000C4F20001086810430860019800780028FD
:1008E00060D1FFE79DF80210012000FA01F245F205
:1008F0000041C4F200010868904308600198C07983
:10090000012818D1FFE79DF80210012000FA01F339
:1009100045F21052C4F200021168194311609DF8AB
:10092000021000FA01F245F21451C4F20001086805
:100930009043086035E00198C079022818D1FFE79C
:100940009DF80210012000FA01F345F21452C4F29E
:1009500000021168194311609DF8021000FA01F2BB
:1009600045F21051C4F2000108689043086017E096
:100970009DF80210012000FA01F345F21052C4F272
:1009800000021168994311609DF8021000FA01F20B
:1009900045F21451C4F20001086890430860FFE773
:1009A000FFE72AE09DF80210012000FA01F245F26B
:1009B0000041C4F200010868104308600198007902
:1009C00068B9FFE79DF80210012000FA01F245F234
:1009D000FC31C4F200010868904308600CE09DF807
:1009E0000210012000FA01F245F20041C4F20001B8
:1009F000086810430860FFE7FFE7A8E29DF80300DE
:100A0000032840F0A680FFE74EF20861C4F20F0110
:100A1000086840F0040008609DF80210012000FA08
:100A200001F246F21C51C4F200010868104308604C
:100A300001980078002860D1FFE79DF8021001209E
:100A400000FA01F246F20041C4F200010868904346
:100A500008600198C079012818D1FFE79DF80210BD
:100A6000012000FA01F346F21052C4F200021168AC
:100A7000194311609DF8021000FA01F246F2145178
:100A8000C4F2000108689043086035E00198C0791D
:100A9000022818D1FFE79DF80210012000FA01F3A7
:100AA00046F21452C4F200021168194311609DF815
:100AB000021000FA01F246F21051C4F20001086877
:100AC0009043086017E09DF80210012000FA01F33E
:100AD00046F21052C4F200021168994311609DF869
:100AE000021000FA01F246F21451C4F20001086843
:100AF00090430860FFE7FFE72AE09DF8021001201D
:100B000000FA01F246F20041C4F200010868104305
:100B100008600198007968B9FFE79DF8021001208C
:100B200000FA01F246F2FC31C4F200010868904379
:100B300008600CE09DF80210012000FA01F246F274
:100B40000041C4F20001086810430860FFE7FFE7B6
:100B5000FCE19DF80300042840F0A680FFE74EF278
:100B60000861C4F20F01086840F0080008609DF8B1
:100B70000210012000FA01F247F21C51C4F20001F8
:100B800008681043086001980078002860D1FFE7EA
:100B90009DF80210012000FA01F247F20041C4F270
:100BA00000010868904308600198C079012818D1B5
:100BB000FFE79DF80210012000FA01F347F21052FE
:100BC000C4F200021168194311609DF8021000FA86
:100BD00001F247F21451C4F2000108689043086022
:100BE00035E00198C079022818D1FFE79DF802107E
:100BF000012000FA01F347F21452C4F20002116816
:100C0000194311609DF8021000FA01F247F21051E9
:100C1000C4F2000108689043086017E09DF80210D4
:100C2000012000FA01F347F21052C4F200021168E9
:100C3000994311609DF8021000FA01F247F2145135
:100C4000C4F20001086890430860FFE7FFE72AE06C
:100C50009DF80210012000FA01F247F20041C4F2AF
:100C600000010868104308600198007968B9FFE73F
:100C70009DF80210012000FA01F247F2FC31C4F2A3
:100C800000010868904308600CE09DF80210012004
:100C900000FA01F247F20041C4F200010868104373
:100CA0000860FFE7FFE750E19DF80300052840F0EA
:100CB000A680FFE74EF20861C4F20F01086840F019
:100CC000100008609DF80210012000FA01F244F2C1
:100CD0001C51C4F2020108681043086001980078B2
:100CE000002860D1FFE79DF80210012000FA01F210
:100CF00044F20041C4F20201086890430860019880
:100D0000C079012818D1FFE79DF80210012000FAF0
:100D100001F344F21052C4F2020211681943116047
:100D20009DF8021000FA01F244F21451C4F20201DB
:100D300008689043086035E00198C079022818D10E
:100D4000FFE79DF80210012000FA01F344F214526B
:100D5000C4F202021168194311609DF8021000FAF2
:100D600001F244F21051C4F2020108689043086095
:100D700017E09DF80210012000FA01F344F210522E
:100D8000C4F202021168994311609DF8021000FA42
:100D900001F244F21451C4F2020108689043086061
:100DA000FFE7FFE72AE09DF80210012000FA01F2B8
:100DB00044F20041C4F2020108681043086001983F
:100DC000007968B9FFE79DF80210012000FA01F2EE
:100DD00044F2FC31C4F202010868904308600CE060
:100DE0009DF80210012000FA01F244F20041C4F221
:100DF0000201086810430860FFE7FFE7A4E04EF235
:100E00000861C4F20F01086840F0200008600198F2
:100E10000078002860D1FFE79DF80210012000FA59
:100E200001F245F20041C4F20201086890430860F3
:100E30000198C079012818D1FFE79DF80210012020
:100E400000FA01F345F21052C4F20202116819438C
:100E500011609DF8021000FA01F245F21451C4F23B
:100E6000020108689043086035E00198C0790228C3
:100E700018D1FFE79DF80210012000FA01F345F2B6
:100E80001452C4F202021168194311609DF8021055
:100E900000FA01F245F21051C4F2020108689043D1
:100EA000086017E09DF80210012000FA01F345F2F6
:100EB0001052C4F202021168994311609DF80210A9
:100EC00000FA01F245F21451C4F20201086890439D
:100ED0000860FFE7FFE72AE09DF80210012000FA12
:100EE00001F245F20041C4F20201086810430860B3
:100EF0000198007968B9FFE79DF80210012000FA17
:100F000001F245F2FC31C4F2020108689043086026
:100F10000CE09DF80210012000FA01F245F2FC31CC
:100F2000C4F20201086810430860FFE7FFE79DF87C
:100F30000210012000FA01F245F21C51C4F2020134
:100F4000086810430860FFE7FFE7FFE7FFE7FFE7F8
:100F500040F26601C2F200010120087062B602B0E0
:100F600080BD000081B04EF68851CEF200010868C5
:100F700040F4700008604EF27001C4F20F0142F6B6
:100F80001000C0F2807008604EF26002C4F20F02DE
:100F900043F6D120C0F28E70106042F64250C0F28B
:100FA0009E10106042F60000C0F280100860002021
:100FB0000090FFE70098C0087C2805D8FFE7FFE70E
:100FC000009801300090F5E74EF26001C4F20F0185
:100FD00040F64250C0F29E1008604EF27001C4F21A
:100FE0000F0140F60000C0F2801008600020009061
:100FF000FFE70098C0087C2805D8FFE7FFE70098C6
:1010000001300090F5E74EF26001C4F20F0140F6A6
:101010004250C0F2DE100860FFE74EF25000C4F20A
:101020000F00006800F04000402801D0FFE7F4E71F
:101030004EF26001C4F20F0140F24250C0F2DE10E5
:1010400008604EF27001C4F20F014FF0C0700860EA
:1010500000200090FFE7009842F20F71884205D807
:10106000FFE7FFE7009801300090F4E701B0704718
:1010700080B586B0002005908DF809003D218DF8DF
:101080000A108DF80C0001208DF8080002A8FFF767
:1010900011FBFFE733200121FFF70EFA0020ADF826
:1010A0001200FFE7BDF81200FE2818DCFFE7002061
:1010B000ADF81000FFE7BDF81000B0F57A7F07DA51
:1010C000FFE7FFE7BDF810000130ADF81000F2E7D0
:1010D000FFE7BDF812000130ADF81200E2E733205F
:1010E00000210191FFF7E8F90198ADF81200FFE740
:1010F000BDF81200FE2818DCFFE70020ADF8100054
:10110000FFE7BDF81000B0F57A7F07DAFFE7FFE7E9
:10111000BDF810000130ADF81000F2E7FFE7BDF8B0
:1011200012000130ADF81200E2E7B3E7F1EE100A69
:101130004FF6FF71C0F2C03120EA010040F040706C
:10114000E1EE100A70470000581100000000002076
:0811500068020000A802000083
:04000005000002F104
:00000001FF
